{
    "contractName": "VotingSystem",
    "abi": [
        {
            "inputs": [
                {
                    "internalType": "string",
                    "name": "_proposalName",
                    "type": "string"
                },
                {
                    "internalType": "address",
                    "name": "creator",
                    "type": "address"
                },
                {
                    "internalType": "address",
                    "name": "factoryAddress",
                    "type": "address"
                }
            ],
            "stateMutability": "nonpayable",
            "type": "constructor"
        },
        {
            "inputs": [],
            "name": "Pfactory",
            "outputs": [
                {
                    "internalType": "contract ProposalFactory",
                    "name": "",
                    "type": "address"
                }
            ],
            "stateMutability": "view",
            "type": "function"
        },
        {
            "inputs": [
                {
                    "internalType": "string",
                    "name": "_name",
                    "type": "string"
                },
                {
                    "internalType": "string",
                    "name": "_party",
                    "type": "string"
                },
                {
                    "internalType": "string",
                    "name": "_imageUrl",
                    "type": "string"
                },
                {
                    "internalType": "uint256",
                    "name": "_voteCount",
                    "type": "uint256"
                }
            ],
            "name": "addCandidates",
            "outputs": [],
            "stateMutability": "nonpayable",
            "type": "function"
        },
        {
            "inputs": [
                {
                    "internalType": "string",
                    "name": "",
                    "type": "string"
                }
            ],
            "name": "candidateIndex",
            "outputs": [
                {
                    "internalType": "uint256",
                    "name": "",
                    "type": "uint256"
                }
            ],
            "stateMutability": "view",
            "type": "function"
        },
        {
            "inputs": [
                {
                    "internalType": "uint256",
                    "name": "",
                    "type": "uint256"
                }
            ],
            "name": "candidates",
            "outputs": [
                {
                    "internalType": "string",
                    "name": "name",
                    "type": "string"
                },
                {
                    "internalType": "string",
                    "name": "party",
                    "type": "string"
                },
                {
                    "internalType": "string",
                    "name": "imageUrl",
                    "type": "string"
                },
                {
                    "internalType": "uint256",
                    "name": "voteCount",
                    "type": "uint256"
                }
            ],
            "stateMutability": "view",
            "type": "function"
        },
        {
            "inputs": [],
            "name": "endVoting",
            "outputs": [],
            "stateMutability": "nonpayable",
            "type": "function"
        },
        {
            "inputs": [],
            "name": "getAllCandidates",
            "outputs": [
                {
                    "components": [
                        {
                            "internalType": "string",
                            "name": "name",
                            "type": "string"
                        },
                        {
                            "internalType": "string",
                            "name": "party",
                            "type": "string"
                        },
                        {
                            "internalType": "string",
                            "name": "imageUrl",
                            "type": "string"
                        },
                        {
                            "internalType": "uint256",
                            "name": "voteCount",
                            "type": "uint256"
                        }
                    ],
                    "internalType": "struct VotingSystem.Candidate[]",
                    "name": "",
                    "type": "tuple[]"
                }
            ],
            "stateMutability": "view",
            "type": "function"
        },
        {
            "inputs": [
                {
                    "internalType": "uint256",
                    "name": "index",
                    "type": "uint256"
                }
            ],
            "name": "getCandidate",
            "outputs": [
                {
                    "internalType": "string",
                    "name": "",
                    "type": "string"
                },
                {
                    "internalType": "string",
                    "name": "",
                    "type": "string"
                },
                {
                    "internalType": "string",
                    "name": "",
                    "type": "string"
                },
                {
                    "internalType": "uint256",
                    "name": "",
                    "type": "uint256"
                }
            ],
            "stateMutability": "view",
            "type": "function"
        },
        {
            "inputs": [],
            "name": "getProposalName",
            "outputs": [
                {
                    "internalType": "string",
                    "name": "",
                    "type": "string"
                }
            ],
            "stateMutability": "view",
            "type": "function"
        },
        {
            "inputs": [
                {
                    "internalType": "address",
                    "name": "",
                    "type": "address"
                }
            ],
            "name": "hasVoted",
            "outputs": [
                {
                    "internalType": "bool",
                    "name": "",
                    "type": "bool"
                }
            ],
            "stateMutability": "view",
            "type": "function"
        },
        {
            "inputs": [],
            "name": "manager",
            "outputs": [
                {
                    "internalType": "address",
                    "name": "",
                    "type": "address"
                }
            ],
            "stateMutability": "view",
            "type": "function"
        },
        {
            "inputs": [],
            "name": "proposalStatus",
            "outputs": [
                {
                    "internalType": "bool",
                    "name": "",
                    "type": "bool"
                }
            ],
            "stateMutability": "view",
            "type": "function"
        },
        {
            "inputs": [
                {
                    "internalType": "string",
                    "name": "name",
                    "type": "string"
                }
            ],
            "name": "vote",
            "outputs": [],
            "stateMutability": "nonpayable",
            "type": "function"
        },
        {
            "inputs": [
                {
                    "internalType": "uint256",
                    "name": "",
                    "type": "uint256"
                }
            ],
            "name": "voters",
            "outputs": [
                {
                    "internalType": "address",
                    "name": "",
                    "type": "address"
                }
            ],
            "stateMutability": "view",
            "type": "function"
        },
        {
            "inputs": [],
            "name": "votingCompleted",
            "outputs": [
                {
                    "internalType": "bool",
                    "name": "",
                    "type": "bool"
                }
            ],
            "stateMutability": "view",
            "type": "function"
        }
    ],
    "bytecode": "60806040523461025c576110e98038038061001981610260565b92833981019060608183031261025c5780516001600160401b03811161025c57810182601f8201121561025c578051906001600160401b0382116102485761006a601f8301601f1916602001610260565b938285526020838301011161025c57815f9260208093018387015e840101526100a1604061009a60208401610285565b9201610285565b600280546001600160a01b0319166001600160a01b039093169290921790915581516001600160401b03811161024857600154600181811c9116801561023e575b602082101461022a57601f81116101c7575b50602092601f821160011461016657928192935f9261015b575b50508160011b915f199060031b1c1916176001555b6006805460ff191690555f80546001600160a01b0319166001600160a01b0392909216919091179055604051610e4f908161029a8239f35b015190505f8061010e565b601f1982169360015f52805f20915f5b8681106101af5750836001959610610197575b505050811b01600155610123565b01515f1960f88460031b161c191690555f8080610189565b91926020600181928685015181550194019201610176565b60015f527fb10e2d527612073b26eecdfd717e6a320cf44b4afac2b0732d9fcbe2b7fa0cf6601f830160051c81019160208410610220575b601f0160051c01905b81811061021557506100f4565b5f8155600101610208565b90915081906101ff565b634e487b7160e01b5f52602260045260245ffd5b90607f16906100e2565b634e487b7160e01b5f52604160045260245ffd5b5f80fd5b6040519190601f01601f191682016001600160401b0381118382101761024857604052565b51906001600160a01b038216820361025c5756fe6080806040526004361015610012575f80fd5b5f905f3560e01c90816309eef43e14610b21575080632e6997fe146109f25780633477ee2e1461099357806335b8e8201461094c578063481c6a75146109245780634faa1fa1146104cc57806362b25fc6146103ea5780636ac0c892146103c85780639df9ae0c14610372578063a84fff291461034b578063c3403ddf146102bd578063c71a22e41461029a578063da58c7d9146102565763fc36e15b146100b8575f80fd5b346102535760203660031901126102535760043567ffffffffffffffff81116102515760206100ec81923690600401610d08565b604051928184925191829101835e81016007815203019020545f19810190811161023d57600354811015610207573382526005602052600160ff6040842054161515146101cd5761013e600391610b83565b500180545f1981146101b9576001019055600454600160401b8110156101a55780600161016e9201600455610d5e565b81546001600160a01b0360039290921b91821b1916339182901b179091558152600560205260408120805460ff1916600117905580f35b634e487b7160e01b82526041600452602482fd5b634e487b7160e01b83526011600452602483fd5b60405162461bcd60e51b8152602060048201526012602482015271155cd95c88105b1c9958591e48159bdd195960721b6044820152606490fd5b60405162461bcd60e51b815260206004820152600e60248201526d1d5cd95c881b9bdd08199bdd5b9960921b6044820152606490fd5b634e487b7160e01b82526011600452602482fd5b505b80fd5b5034610253576020366003190112610253576004359060045482101561025357602061028183610d5e565b905460405160039290921b1c6001600160a01b03168152f35b5034610253578060031936011261025357602060ff600654166040519015158152f35b5034610347575f366003190112610347576102e360018060a01b03600254163314610dbd565b6006805460ff191660011790555f546001600160a01b0316803b15610347575f8091602460405180948193630afbf72b60e01b83523060048401525af1801561033c5761032e575080f35b61033a91505f90610c07565b005b6040513d5f823e3d90fd5b5f80fd5b34610347575f366003190112610347575f546040516001600160a01b039091168152602090f35b346103475760203660031901126103475760043567ffffffffffffffff8111610347576020806103a781933690600401610d08565b604051928184925191829101835e8101600781520301902054604051908152f35b34610347575f36600319011261034757602060ff600654166040519015158152f35b34610347575f366003190112610347576040515f60015461040a81610bb3565b80845290600181169081156104a8575060011461044a575b6104468361043281850382610c07565b604051918291602083526020830190610b5f565b0390f35b60015f9081527fb10e2d527612073b26eecdfd717e6a320cf44b4afac2b0732d9fcbe2b7fa0cf6939250905b80821061048e57509091508101602001610432610422565b919260018160209254838588010152019101909291610476565b60ff191660208086019190915291151560051b840190910191506104329050610422565b346103475760803660031901126103475760043567ffffffffffffffff8111610347576104fd903690600401610d08565b60243567ffffffffffffffff81116103475761051d903690600401610d08565b60443567ffffffffffffffff81116103475761053d903690600401610d08565b9061055360018060a01b03600254163314610dbd565b6040519161056083610beb565b838352602083019182526040830190815260608301916064358352600354600160401b8110156107815780600161059a9201600355610b83565b949094610911575180519067ffffffffffffffff82116107815781906105c08754610bb3565b601f81116108c1575b50602090601f831160011461085e575f92610853575b50508160011b915f199060031b1c19161784555b518051600185019167ffffffffffffffff82116107815781906106168454610bb3565b601f8111610803575b50602090601f83116001146107a0575f92610795575b50508160011b915f199060031b1c19161790555b518051600284019167ffffffffffffffff82116107815761066a8354610bb3565b601f811161073c575b50602090601f83116001146106d6576003949392915f91836106cb575b50508160011b915f1990861b1c19161790555b5191015560208060035492604051928184925191829101835e81016007815203019020555f80f35b015190508780610690565b90601f19831691845f52815f20925f5b81811061072457509160019391856003989796941061070d575b505050811b0190556106a3565b01515f1983881b60f8161c19169055878080610700565b929360206001819287860151815501950193016106e6565b835f5260205f20601f840160051c81019160208510610777575b601f0160051c01905b81811061076c5750610673565b5f815560010161075f565b9091508190610756565b634e487b7160e01b5f52604160045260245ffd5b015190508780610635565b5f8581528281209350601f198516905b8181106107eb57509084600195949392106107d3575b505050811b019055610649565b01515f1960f88460031b161c191690558780806107c6565b929360206001819287860151815501950193016107b0565b909150835f5260205f20601f840160051c81019160208510610849575b90601f859493920160051c01905b81811061083b575061061f565b5f815584935060010161082e565b9091508190610820565b0151905087806105df565b5f8881528281209350601f198516905b8181106108a95750908460019594939210610891575b505050811b0184556105f3565b01515f1960f88460031b161c19169055878080610884565b9293602060018192878601518155019501930161086e565b909150865f5260205f20601f840160051c81019160208510610907575b90601f859493920160051c01905b8181106108f957506105c9565b5f81558493506001016108ec565b90915081906108de565b634e487b7160e01b5f525f60045260245ffd5b34610347575f366003190112610347576002546040516001600160a01b039091168152602090f35b346103475760203660031901126103475761097161096b600435610b83565b50610d76565b8051610446602083015192606060408201519101519060405194859485610cc9565b3461034757602036600319011261034757600435600354811015610347576109ba90610b83565b506109c481610c29565b6104466109d360018401610c29565b9260036109e260028301610c29565b9101549060405194859485610cc9565b34610347575f3660031901126103475760035467ffffffffffffffff81116107815760405190610a2860208260051b0183610c07565b80825260208201908160035f527fc2575a0e9e593c00f959f8c92f12db2869c3395a3b0502d05e2516446f71f85b5f915b838310610b0357848660405191829160208301906020845251809152604083019060408160051b85010192915f905b828210610a9757505050500390f35b919360019193955060208091603f19898203018552875190606080610aed610adb610acb8651608087526080870190610b5f565b8787015186820389880152610b5f565b60408601518582036040870152610b5f565b9301519101529601920192018594939192610a88565b60046020600192610b1385610d76565b815201920192019190610a59565b34610347576020366003190112610347576004356001600160a01b0381169190829003610347576020915f526005825260ff60405f20541615158152f35b805180835260209291819084018484015e5f828201840152601f01601f1916010190565b600354811015610b9f5760035f5260205f209060021b01905f90565b634e487b7160e01b5f52603260045260245ffd5b90600182811c92168015610be1575b6020831014610bcd57565b634e487b7160e01b5f52602260045260245ffd5b91607f1691610bc2565b6080810190811067ffffffffffffffff82111761078157604052565b90601f8019910116810190811067ffffffffffffffff82111761078157604052565b9060405191825f825492610c3c84610bb3565b8084529360018116908115610ca75750600114610c63575b50610c6192500383610c07565b565b90505f9291925260205f20905f915b818310610c8b575050906020610c61928201015f610c54565b6020919350806001915483858901015201910190918492610c72565b905060209250610c6194915060ff191682840152151560051b8201015f610c54565b949392610cf5606093610ce7610d039460808a5260808a0190610b5f565b9088820360208a0152610b5f565b908682036040880152610b5f565b930152565b81601f820112156103475780359067ffffffffffffffff82116107815760405192610d3d601f8401601f191660200185610c07565b8284526020838301011161034757815f926020809301838601378301015290565b600454811015610b9f5760045f5260205f2001905f90565b90604051610d8381610beb565b606060038294610d9281610c29565b8452610da060018201610c29565b6020850152610db160028201610c29565b60408501520154910152565b15610dc457565b60405162461bcd60e51b815260206004820152602760248201527f4f6e6c7920746865206d616e616765722063616e2063616c6c207468697320666044820152663ab731ba34b7b760c91b6064820152608490fdfea264697066735822122007039ee4930db10be4c1fa5d756f843212e8d55ea197149b5f450ab3902e982164736f6c634300081c0033",
    "sourcePath": "d:/vivid/votomo/votomo/ethereum/contracts/votingproposal.sol",
    "compiler": {
        "name": "solc",
        "version": "0.8.28+commit.7893614a"
    },
    "functionHashes": {
        "Pfactory()": "a84fff29",
        "addCandidates(string,string,string,uint256)": "4faa1fa1",
        "candidateIndex(string)": "9df9ae0c",
        "candidates(uint256)": "3477ee2e",
        "endVoting()": "c3403ddf",
        "getAllCandidates()": "2e6997fe",
        "getCandidate(uint256)": "35b8e820",
        "getProposalName()": "62b25fc6",
        "hasVoted(address)": "09eef43e",
        "manager()": "481c6a75",
        "proposalStatus()": "c71a22e4",
        "vote(string)": "fc36e15b",
        "voters(uint256)": "da58c7d9",
        "votingCompleted()": "6ac0c892"
    },
    "gasEstimates": {
        "creation": {
            "codeDepositCost": "732600",
            "executionCost": "infinite",
            "totalCost": "infinite"
        },
        "external": {
            "Pfactory()": "2482",
            "addCandidates(string,string,string,uint256)": "infinite",
            "candidateIndex(string)": "infinite",
            "candidates(uint256)": "infinite",
            "endVoting()": "infinite",
            "getAllCandidates()": "infinite",
            "getCandidate(uint256)": "infinite",
            "getProposalName()": "infinite",
            "hasVoted(address)": "2379",
            "manager()": "2373",
            "proposalStatus()": "2518",
            "vote(string)": "infinite",
            "voters(uint256)": "6907",
            "votingCompleted()": "2427"
        }
    }
}